:020000040800F2
:1000000000000220B51B0008011C0008D1080008F0
:10001000D7080008DD080008E30800080000000019
:10002000000000000000000000000000011C0008AB
:10003000011C000800000000011C0008011C000851
:10004000011C0008011C0008011C0008011C00081C
:10005000011C0008011C0008011C0008011C00080C
:10006000011C0008011C0008011C0008011C0008FC
:10007000011C0008011C0008011C0008011C0008EC
:10008000011C0008011C0008011C0008B50800083C
:10009000B9080008011C0008A9080008011C000894
:1000A000011C0008011C0008011C0008011C0008BC
:1000B000011C0008011C0008011C0008011C0008AC
:1000C000011C0008011C0008011C0008011C00089C
:1000D000011C0008011C0008011C0008011C00088C
:1000E000011C0008011C0008011C0008011C00087C
:1000F000011C0008011C0008011C0008011C00086C
:10010000011C0008011C0008011C0008011C00085B
:10011000011C0008011C0008011C0008011C00084B
:10012000011C0008011C0008011C0008011C00083B
:10013000011C00080000000000000000C9080008C1
:10014000CD080008011C0008BD080008011C0008BB
:10015000011C0008011C0008011C0008011C00080B
:10016000011C0008011C0008011C0008011C0008FB
:10017000011C0008011C0008011C00080000000010
:1001800000000000011C000800000000000000004A
:10019000011C00080000000000000000011C000815
:1001A000000000000000000000000000011C00082A
:1001B000011C0008011C0008011C0008011C0008AB
:1001C000011C000810B5054C237833B9044B13B15A
:1001D0000448AFF300800123237010BDA80C002059
:1001E0000000000010CD00080C4B43B10C480D4935
:1001F00010B5AFF300800C48036823B910BD0A485E
:10020000036833B97047094B002BF7D0BDE81040A5
:100210001847064B002BF5D0184700BF0000000020
:1002200010CD0008AC0C0020A40C00200000000041
:10023000154B002B08BF134B9D46A3F5803A0021B8
:100240008B460F461348144A121A05F0B7F80F4BA5
:10025000002B00D098470E4B002B00D09847002071
:10026000002104000D000D48002802D00C4800F0C9
:100270006FFE04F06BFE2000290001F00FF900F082
:10028000D9FF00BF000008000000022000000000AD
:100290008D140008A80C002040120020510F000807
:1002A00000000000704710B55021044604F048F8E3
:1002B000204610BD10B5094B036003F120028033C6
:1002C0000446C0F8B020C0F8B430B03003F078FD78
:1002D000204603F0D7F8204610BD00BFD4C3000865
:1002E000A0F1B000E6E7A0F1B400E3E708B50346EB
:1002F00053F8042B02B9036002689A4204D06822C2
:100300000249034803F08EFD184608BDE4BA000810
:1003100004BB000808B50248FFF7E8FF08BD00BFAE
:10032000900E002008B50248FFF7E0FF08BD00BFAF
:10033000900E0020000000002DE9D0432048214FFE
:10034000FFF7D4FF204800F03BF904461C48FFF7B4
:10035000CDFF20460AF024F915A3D3E900230AF0C3
:1003600073F90B4619491A4C0246C1E9002312A140
:10037000D1E900010AF092FA002632463B46804657
:1003800089460AF0F1FB18B1C4E90067BDE8D083E3
:10039000104F002632463B46404649460AF0C6FB0F
:1003A0000028F1D1C4E90089BDE8D083AFF3008013
:1003B0006666666666660A40CDCCCCCCCC4C3740CF
:1003C000900E002000C08240C80C0020E80D0020E4
:1003D000D0010020000059408FB500F0A9F80F4D62
:1003E0000F4E104F2A68104CD6E90001CDE90201EA
:1003F000D7E900010132CDE900010C490C482A601F
:1004000003F0F0FC00F06AF82368C01A1928E9D953
:10041000FFF792FF00F062F82060E3E7140D002080
:10042000E80D0020D0010020180D002018BB0008A6
:10043000CC0D002010B50446FFF73CFF2046CC2130
:1004400003F07EFF204610BDA0F1B000F2E7A0F15E
:10045000B400EFE7F8B5124C124E134D134F4FF4A2
:10046000E13303220221204602F0FCFE324610490D
:1004700020462C4600F06AFD0E4B44F8043B3846FB
:10048000FFF734FF3221204600F0AAF83846FFF784
:100490002DFF324628460849BDE8F84000F056BD19
:1004A0001C0D0020C8010020C40C0020900E00206C
:1004B000B5020008D4BA0008A5020008024A136871
:1004C00001331360704700BFF00D00200368184728
:1004D00008B10B680360704770470000014B186853
:1004E000704700BFF00D0020C36810B504460BB183
:1004F0009B689847204610BD38B50546064B45F821
:10050000283B044603F049F82846FFF7EDFF204654
:1005100003F08EF8204638BDD4C4000810B5044658
:10052000FFF7EAFF2046402103F00AFF204610BDF6
:1005300000B589B010220021684604F03FFF0D4B42
:1005400000930D4B03931BB1694604A8FFF7C0FF4E
:10055000039B07934FF47A72002304A9074802F023
:10056000FFFF04A8FFF7C0FF6846FFF7BDFF09B013
:100570005DF804FBBD04000828BB0008F80D00204E
:1005800010B50B4C204603F02BF82046094B40F8E1
:10059000283B1022002104F011FF012384F8383099
:1005A0002046054A0549BDE8104000F0CFBC00BF19
:1005B000F80D0020D4C40008C8010020F904000888
:1005C00008B500F09BF807EE900AB8EE677ADFED09
:1005D000037A67EE277A17EE900A08BD0108803982
:1005E0007FB5A1F1F0039BB20F2B04460D4615D940
:1005F0003849284603F096F836492060284603F02B
:10060000B3F834490646284603F044F82268511CE2
:100610000FD1314931483C2203F004FC30492846CF
:1006200003F080F82E492060284603F09DF8064626
:10063000ECE7731C03D13D2227492A48ECE701214E
:10064000E1612949A4F848500023C6F304368A42E0
:1006500084F84A6023646360A3602361A36123621A
:100660006362E362A362E3602363636111D1019378
:100670001E4B5A6C42F480725A645B6C03F48073B4
:100680000193019B204601F0D9FA00B3184803F00A
:10069000FDFC18498A420BD10293144B5A6C42F468
:1006A00000725A645B6C03F400730293029BE9E7E7
:1006B00011498A42E6D103930C4B5A6C42F4806292
:1006C0005A645B6C03F480630393039BDAE704B022
:1006D00070BD00BF34BB0008F8BD000860BE000854
:1006E000D8BC00088ABE0008002001400038024043
:1006F000A3BE000800210140002201401FB50446AE
:1007000010220021684604F059FE94F84A20012383
:1007100001930293122A47D8DFE802F00C0B0A2358
:100720002527292B2D2F31333537393B3D424400C6
:10073000022300931D4A536823F440036946536023
:10074000204601F0D3FB204601F01CFB0A21204685
:1007500001F078FB40BB204601F0C4FB80B204B03E
:1007600010BD0323E5E70423E3E70523E1E70623C0
:10077000DFE70723DDE70823DBE70923D9E70A23BF
:10078000D7E70B23D5E70C23D3E70D23D1E70E23BF
:10079000CFE70F23CDE7064B009307230293C9E76A
:1007A0001123F9E71223F7E70020D8E700230140DF
:1007B0001200001043692DE9F0410D46D9070446A7
:1007C00028D58168334F8268334E83683348394077
:1007D000B94202EA060204BF0127A760B24203EA57
:1007E000000304BF4FF48076A660834204BF4FF439
:1007F0008030A0602748814205D027498A4202D034
:10080000264A934206D1264B264A1B6852F82500F9
:1008100001219847E2686369920708D09F0706D5CF
:100820001F4B204A1B6852F8250000219847A169F8
:10083000626963698E070AD5900508D5190406D543
:10084000174B184A1B6852F8250005219847A769DD
:100850006669626917F0040706F4806609D046B13C
:10086000120406D50E4B0F4A1B6852F825000721CB
:10087000984763695FB156B11B0408D5084B094A14
:100880001B6852F825000221BDE8F0411847BDE879
:10089000F08100BF03000004000300080000031003
:1008A000400E0020380E002000210148FFF782BFD3
:1008B00000640040FFF7F8BFFFF7F6BF01210148D1
:1008C000FFF778BF00680040FFF7F8BFFFF7F6BFFB
:1008D000102300F009B8202300F006B8302300F000
:1008E00003B8402300F000B8EFF3088004217246FB
:1008F0000A4201D0EFF309809C46244B1968026834
:100900000A60043142680A60043182680A60043176
:10091000C2680A600431F0C147460F6004314F4697
:100920000F60043157460F6004315F460F60043199
:1009300002690A60083142690A60043182690A600A
:100940000431C2690A600431034620334FF4007653
:10095000324200D0043375461026354200D1483368
:100960000C46103C2360EFF309820A600431EFF378
:1009700008820A60043172460A600431EFF314827F
:100980000A606046014900F0DDF9FEE744BF000857
:1009900030B5036891FAA1F4B4FA84F491FAA1F1A4
:1009A0000325B1FA81F1640005FA04F4490023EA51
:1009B000040302FA01F11943016030BD00B50022C1
:1009C00089B0374B072867D8DFE800F004121E2AE9
:1009D00036424E5A00921A6B324842F001021A63B4
:1009E0001B6B03F001030093009B09B05DF804FB4F
:1009F00001921A6B2C4842F002021A631B6B03F03F
:100A000002030193019BF0E702921A6B274842F020
:100A100004021A631B6B03F004030293029BE4E7D6
:100A200003921A6B224842F008021A631B6B03F010
:100A300008030393039BD8E704921A6B1D4842F006
:100A400010021A631B6B03F010030493049BCCE7A2
:100A500005921A6B184842F020021A631B6B03F0D0
:100A600020030593059BC0E706921A6B134842F0DA
:100A700040021A631B6B03F040030693069BB4E726
:100A800007921A6B0E4842F080021A631B6B03F048
:100A900080030793079BA8E70A4803F0F7FA00BF13
:100AA00000380240000002400004024000080240FA
:100AB000000C0240001002400014024000180240E6
:100AC000001C0240B9BE0008431C10B5044604D106
:100AD00076220649064803F0A5F9002100F002FD40
:100AE00004F00F040120A04010BD00BFDABE0008D2
:100AF0002CBF000870B504464B1C0E46218216D050
:100B0000C1F30310FFF75AFF05463046FFF7DCFF3D
:100B1000238A074A656103F00F03206052F82330EF
:100B2000A36105F1100318356360A560E56070BD31
:100B300024C20008B0F9100000F066BD0A4619B9D9
:100B400081694069FFF724BF0122F9E708B502F087
:100B5000D1FA002008BD000008B50A4B1B684BB154
:100B600003F03EF803F027F84FF47A7200230AF0FE
:100B700043F808BD02F01EFB4FF47A73B0FBF3F0AC
:100B800008BD00BF440E002000B589B003F066F92F
:100B9000052101A802F07AFD114E124D0424039B99
:100BA000019A1A60304603F0E9FA019B049A1B048B
:100BB0001360304603F0E2FA013CF0D10424039BB9
:100BC000019A1A60284603F0D9FA019B049A1B0483
:100BD0001360284603F0D2FA013CF0D1DEE700BFF3
:100BE000F0490200801A060010B5044603F036F9F9
:100BF000204604F065FF21460246022000F046FA36
:100C0000BDE8104003F040B910B5A2B00B46024653
:100C1000842101A806F02EFB8328044605D905226D
:100C200005490DF1830004F0CBFA002C02DD01A888
:100C3000FFF7DAFF22B010BD3FBF00080FB407B5C1
:100C400004A951F8040B0191FFF7DEFF03B05DF832
:100C500004EB04B070470000F0B52C4C2C4F85B06D
:100C60000025264654F82520294638460135FFF749
:100C7000E5FF0D2DF6D1A36C0293636C0193236CF9
:100C8000009304F13401234C23480EC9FFF7D6FF2B
:100C900021682248FFF7D2FFE16AA26AA36AA06A2C
:100CA000256BE76B0297000C01950090C3F30723B7
:100CB000D2B21B48FFF7C2FFA36A1D0603D5616BC2
:100CC0001848FFF7BBFFA36A180403D5A16B1648A9
:100CD000FFF7B4FFF36C190712D51448FFF7AEFF06
:100CE000336DDA070FD51248FFF7A8FFF36C5B07E7
:100CF0004CBF1048104805B0BDE8F040FFF79EBF5C
:100D00000E48FFF79BFF0E48EEE700BFB00F002034
:100D1000D8BF000800ED00E0E6BF000835C00008BD
:100D200043C0000892C00008A0C00008AEC0000880
:100D3000BDC00008EDC00008F9C00008DDC0000813
:100D4000CAC0000813B504461548FFF777FF302CDA
:100D500017D0402C1AD0202C1DD11248124CFFF76E
:100D60006DFF1248FFF76AFFFFF776FF1048FFF7A5
:100D700065FF00230F4A0093D26B0F49204603F012
:100D8000A5F90E480E4CFFF759FFEAE70D480E4C47
:100D9000FFF754FFE5E70D480D4CFFF74FFFE0E785
:100DA00048BF000871BF00083E01FF809EBF0008D9
:100DB000A9BF0008B00F0020C8BF000880BF00080E
:100DC0003F01FF8089BF00084001FF8094BF0008F9
:100DD0003D01FF8008B502F03BF900F013FF02F07F
:100DE00029F902F035F9024B01221A6008BD00BF53
:100DF000440E002000207047036801221B69002177
:100E00001847036800221B691146184703681B69CD
:100E1000184703689B69184703689B6A18470029AD
:100E20000CBF6FF0180000207047012070471120A0
:100E3000704770476FF01C0070476FF015007047E7
:100E4000012070470020704770470000F8B5074E3A
:100E500015460C468F18BC4205D014F8011B3046CD
:100E600000F096FEF7E72846F8BD00BF041000200A
:100E700038B58DB215F0010405D0084800F022FC09
:100E8000041C18BF0124EB0605D5044800F030FC13
:100E900008B144F01004204638BD00BF0410002003
:100EA00010B5044604F002F9204610BD10B50C46FA
:100EB0002AB1044800F05AFE2070012010BD1046EF
:100EC00010BD00BF0410002038B51D46074B03605D
:100ED000074B1B68044633B9064800F077FC2946E7
:100EE000044800F03BFC204638BD00BF10C100089C
:100EF0006C0E002004100020002070470020704776
:100F000008B5012000F096F90C4A136810B5184492
:100F1000EFF30881884205D3094B0C221A604FF089
:100F2000FF3010BD07490C6824B107490968214406
:100F30008842F1D21060184610BD00BFD8020020D0
:100F40003C120020640E0020680E00200120704733
:100F500001207047002104F029BB7047704708B595
:100F6000FFF7FBFF08BD08B5FFF7F8FF08BD00005D
:100F700008B5037803F00302012A0BD02AB140F22E
:100F80008C520549054802F04DFF43F002030370FF
:100F9000012008BD002008BD58C10008A7C10008F5
:100FA00008B5037803F00302022A05D040F29452F8
:100FB0000449054802F036FF23F0030343F0010320
:100FC000037008BD58C10008CDC100083F2870B5A6
:100FD00004462FDC184D55F820305A1C13D1022836
:100FE00011DCFFF78BFF034658B92046FFF784FF5B
:100FF000034630B9114E3378BFF35B8FDB0704D55E
:101000000F4B45F82430184670BD3046FFF7B0FF4F
:101010000028F5D04FF41653032202210848FFF7A9
:1010200053FF3046FFF7BCFF064A07490448FFF765
:101030008DFFE5E70023E6E7D8010020480E0020F9
:10104000600E0020C8010020490E000838B5054692
:10105000FFF7BCFF0B4B002443F8254030B903F0E9
:1010600071F9092303604FF0FF3038BD03685B69F5
:101070009847051E04DA03F065F96D420560F2E752
:10108000204638BDD8010020FFF7E0BF38B50C4638
:101090001546FFF79BFF38B903F054F909230360A5
:1010A0004FF0FF34204638BD03682146DB682A46EE
:1010B0009847041EF6DA03F045F964420460EFE74E
:1010C00008B5131E06DA03F03DF9162303604FF04E
:1010D000FF3008BD04D0FFF7D9FF40EAE07008BD3B
:1010E000184608BD38B50C461546FFF76FFF38B9EE
:1010F00003F028F9092303604FF0FF34204638BD80
:10110000036821469B682A469847041EF6DA03F0D6
:1011100019F964420460EFE7002A08B503DBBDE873
:101120000840FFF7DFBF03F00DF9162303604FF00F
:10113000FF3008BD10B5FFF749FF044628B903F09A
:1011400001F909230360204610BD0368DB69984755
:10115000041EF8DA03F0F6F8644204600024F2E7B3
:101160001FB504220C4640230DEB020101900DF146
:1011700009008DF8083004F023F8214602A803F096
:101180005FFB044630B10198FFF7D4FF10B1204651
:10119000FFF7E0FE204604B010BDFFF7CBBF38B527
:1011A0000C461546FFF712FF38B903F0CBF80923B8
:1011B00003604FF0FF34204638BD036821461B69A9
:1011C0002A469847041EF6DA03F0BCF8644204602D
:1011D000EFE7FFF7E4BF10B5FFF7F8FE30B903F013
:1011E000B1F8092303604FF0FF3010BD03689B691D
:1011F0009847041E04DA03F0A5F864420460F2E79D
:10120000002010BD0A4C08B523680546986803F015
:10121000D3F92368D86803F0CFF90120FFF7DBFF8B
:101220000220FFF7D8FF0DB1FFF7AEFCFEE700BFCD
:10123000E402002008B5FFF7E5FF38B50D46FFF7DB
:10124000C5FE044630B903F07DF8092303604FF072
:10125000FF3038BD0368DB699847002814BF4FF49E
:1012600000534FF400436B60236820469B6A984705
:101270002861002038BDFFF7E0BF03F017BF000072
:1012800010B504460948FFF731F80023084A19460B
:1012900052F82300A04208BF42F823100133402B2C
:1012A000F6D10248FFF722F810BD00BF500E002013
:1012B000D801002010B50F48FFF718F80E4B032493
:1012C00053F824206AB10134402CF9D103F03AF8E4
:1012D000182303600748FFF709F84FF0FF34204652
:1012E00010BD4FF0FF32034843F82420FEF7FEFF05
:1012F000F5E700BF500E0020D801002010B50446CD
:10130000FFF7D8FF0028A4BF014B43F8204010BDD1
:10131000D801002070B506460C46FFF7EFFF0546E2
:1013200090B12146FFF71CFF044630B9074B53F834
:101330002520964203D143F82500204670BD03F0D6
:1013400001F809230360F8E70446F6E7D801002016
:101350000EB42DE9F04185B00546FFF7ABFF041E42
:1013600013DB0023294602A8019302F04FFC02A8D8
:1013700002F09CFC1B4D064668B902F0E3FF132304
:10138000036045F824604FF0FF34204605B0BDE807
:10139000F04103B0704702A802F076FC074602A8AD
:1013A00037B102F07AFC0190019B45F82430ECE75C
:1013B00002F061FC06460028DFD0036802A8D3F8DB
:1013C000088002F04DFC0B9B024601A93046C04745
:1013D00006460028E8D002F0B5FF7642066045F8E0
:1013E0002470D0E7D801002073B50E461849054691
:1013F00004F0FAF9044620B9FFF7E8FD204602B0F0
:1014000070BD1449284604F0EFF920B90120FFF718
:10141000DDFD0124F2E71049284604F0E5F920B982
:101420000220FFF7D3FD0224E8E72B78402B07D1F9
:101430000422691C0DEB020003F0C2FE019CDDE7F3
:1014400026F400412846FFF783FF0446D6E700BF95
:1014500014C200081BC200080CC200087047704785
:10146000074B08499A68084810B5043A52F8044FE7
:1014700041F8044F8142F9D14FF000529A6010BDFB
:1014800000ED00E0FCFFFF1FC001002008B5FFF7E2
:10149000E7FFFFF79FFCFFF7E2FF08BD08B5FFF786
:1014A000DDFFBDE80840FEF797BF30B5C36891FA8D
:1014B000A1F4B4FA84F491FAA1F10325B1FA81F10F
:1014C000640005FA04F4490023EA040302FA01F176
:1014D0001943C16030BD012A02D0022A18BF002280
:1014E000FFF7E3BF2DE9F0410E46411C04D142490C
:1014F00042483E2202F096FC00F00F08404BC0F339
:10150000031053F82840FFF759FA06F007058368DF
:1015100094FAA4F1B1FA81F194FAA4F203274900F4
:1015200007FA01F1B2FA82F223EA01035200022122
:1015300001FA02F213438360BD4258D8DFE805F098
:101540001D1D021DB8F1070FC6F3032739D9426AE2
:10155000230A93FAA3F1B1FA81F193FAA3F34FF0BE
:101560000F0EB3FA83F389000EFA01F19B0022EA11
:10157000010207FA03F313434362026894FAA4F1E9
:10158000B1FA81F194FAA4F30327B3FA83F3490083
:1015900007FA01F15B0005FA03F322EA0102013DBB
:1015A0001343012D036005D8436832074CBF234322
:1015B000A3434360C6F301122146BDE8F041FFF7A3
:1015C0008ABF026A94FAA4F3B3FA83F394FAA4F1FB
:1015D0004FF00F0EB1FA81F19B000EFA03F3890070
:1015E00022EA030207FA01F313430362C5E7672205
:1015F000014904487EE700BF64C200082CBF000810
:1016000024C200083FC60008431C70B50D4604D133
:1016100088221F491F4802F005FC00F00F021E4BF4
:10162000C0F3031053F82240FFF7C8F9066894FA94
:10163000A4F1B1FA81F394FAA4F259000323B2FAA7
:1016400082F28B4033405200D340013B012B05D83E
:10165000EB1E022B436809D823434360032D08D1B6
:1016600001222146BDE87040FFF735BF23EA04039D
:101670004360012DF4D0052D01D0022D01D10222AD
:10168000EFE721460022BDE87040FFF70EBF00BF24
:1016900064C200082CBF000824C200080FB407B5BC
:1016A000064B07491B6805AAD868019205F05AFD48
:1016B00003B05DF804EB04B0704700BFE402002003
:1016C000B4C200084368094A9B0182B0D3581A6823
:1016D000120706D5002201921A6801925A680192F7
:1016E000019A1868C0F3401002B0704750100020F3
:1016F0004368034A9B01D3581868C0F3C010704771
:101700005010002042681449920110B404685450EB
:10171000531882685A60C2689A600269DA60426946
:101720001A61026A9A610022DA84DA619A84DA859F
:101730009A85B0F91A20013206D108225A6118465A
:101740005DF8044B01F06BBBB0F9182001320CBFFF
:1017500004220C22F2E700BF5010002010B5816077
:101760000C46FFF7CFFF28B121460348BDE81040E3
:10177000FFF794BF10BD00BFB4C20008124B9842DF
:1017800017D0A3F54C43984215D003F580639842D7
:1017900013D003F58063984211D003F5806398421B
:1017A0000FD003F5444398420CBF05204FF0FF30A3
:1017B00070470020704701207047022070470320C7
:1017C00070470420704700BF00100140F0B50E467E
:1017D00087B004465B493046154601F0A3FF5A49DD
:1017E0000746284601F09EFF0146384601F076FF85
:1017F0002060013004D1554955483D2202F012FBCA
:10180000022E0AD0032D08D04E49022001F08AFF93
:10181000874224D14F4802F039FC01274E4B206803
:1018200098424FF000031CD100934C4B5A6C42F08D
:1018300010025A645B6C03F010030093009B484B4A
:1018400098422BD100230593444B5A6C42F020025E
:101850005A645B6C03F020030593059B1EE0002790
:10186000DCE7404A90420BD101933C4B1A6C42F4A6
:1018700000321A641B6C03F400330193019BDEE712
:10188000394A904213D10293344B1A6C42F48022AD
:101890001A641B6C03F480230293029BFFF76EFF14
:1018A0000028606021DAA42228493048A6E7304A9F
:1018B00090420BD10393294B1A6C42F400221A6414
:1018C0001B6C03F400230393039BE7E7294A904230
:1018D000B5D10493214B1A6C42F480121A641B6C2C
:1018E00003F480130493049BD8E71649304601F0B3
:1018F000D1FE1549284601F0CDFE721C03D001210E
:101900003046FFF781FE6B1C03D001212846FFF70C
:101910007BFE4FF41653A3600023E36023616361F1
:101920002362268365832046FFF7ECFE3FB1124B0E
:10193000124801221A6021464C2203F041FC07B0F4
:10194000F0BD00BF80BD000808BD0008DEC2000871
:1019500032C300084EC300080010014000380240A6
:1019600000140140004400400048004083C30008C8
:10197000004C0040005000406C0E0020041000207D
:10198000002808DB4209012300F01F0003FA00F0E1
:10199000014B43F82200704700E100E000280DDB16
:1019A0004309012200F01F0002FA00F02033044A2C
:1019B00042F82300BFF34F8FBFF36F8F704700BF14
:1019C00000E100E0F7B5FFF7D9FE071E26DB144E55
:1019D00056F8270010B3134CBD0163591A6812065C
:1019E00006D5DB68190603D50F4B01211B68984704
:1019F00063591A68920608D5DB68980605D50A4B24
:101A000056F827001B680021984763591A68110788
:101A100004D55A69D20744BF5B68019303B0F0BD97
:101A2000740E002050100020700E00200148FFF7B7
:101A3000C9BF00BF001401400148FFF7C3BF00BF8A
:101A4000005000400148FFF7BDBF00BF004C004000
:101A50000148FFF7B7BF00BF004800400148FFF74B
:101A6000B1BF00BF004400400148FFF7ABBF00BF5B
:101A700000100140034B19604168034B43F82120DB
:101A8000704700BF700E0020740E002030B490E844
:101A900018002C48834233D00AD8A0F50060834256
:101AA00028D000F58060834227D0002318460FE03D
:101AB000254883420AD000F58060834223D0A0F5F8
:101AC00044408342F1D1214B352001E0204B2520B9
:101AD000204DA401FAB1C9B92959CA6842F02002BF
:101AE000CA601D4A00F11001926830BC42F82130F2
:101AF000FFF746BF194B2620EAE7194B2720E7E7F7
:101B0000184B3420E4E7184B4720E1E72959CA680D
:101B100042F08002E4E72B59DA6849B922F020024A
:101B2000DA60DB6813F0800F09D130BCFFF736BFF5
:101B300022F08002DA60DB6813F0200FF4E730BC9B
:101B4000704700BF004C004000100140391A0008E7
:101B5000691A00085010002000ED00E05D1A00082E
:101B6000511A0008451A00082D1A000838B54468B3
:101B700005462846FFF7A6FD0028FAD0A401034B2E
:101B80001B595868C0F3080038BD00BF5010002032
:101B900070B5456806460C463046FFF7A9FD00289B
:101BA000FAD0AD01024B5B59C4F308045C6070BD10
:101BB00050100020DFF830D0002103E00B4B5B58C1
:101BC000435004310A480B4B42189A42F6D30A4A52
:101BD00002E0002342F8043B084B9A42F9D301F09B
:101BE0004DF9FEF725FB7047000002201CCD0008D0
:101BF000C8010020A80C0020A80C002040120020E2
:101C0000FEE7704708B50B4B1A6842F400721A6081
:101C10001A6842F480621A601A6842F480721A608C
:101C2000032000F0FBF90F20FEF790FFFFF7E9FF1C
:101C3000002008BD003C02407047000010B504467B
:101C4000002800F09980036C23B9436480F83C308D
:101C5000FFF7F2FF236CDB0600F18C80236C23F48A
:101C6000885323F0020343F002032364434B5A6872
:101C700022F440325A605A6861680A435A60236805
:101C800021695A6822F480725A605A6842EA012235
:101C90005A605A68A16822F040725A605A680A4332
:101CA0005A609A68E16822F400629A609A680A436E
:101CB0009A603349A26A8A4250D0996821F07061D3
:101CC000996099680A439A609A68E16A22F04052E2
:101CD0009A609A680A439A609A68A16922F002029F
:101CE0009A609A6842EA41029A60226A002A3DD0CC
:101CF0005A68616A42F400625A605A6822F460428B
:101D00005A605A68013942EA41325A60DA6AE16936
:101D100022F47002DA62DA6A013942EA0152DA62C6
:101D20009A68216B22F400729A609A6842EA412212
:101D30009A609A68616922F480629A609A680020C9
:101D400042EA81229A606064236C23F0030343F02B
:101D500001032364002384F83C3010BD9A6822F00C
:101D600070629A609A6822F04052B4E75A6822F48E
:101D70000062CAE70120EDE7012010BD0023014009
:101D80000100000F82B00023019390F83C30012B3A
:101D90004ED0012380F83C3003689A68D10705D5FE
:101DA0009A68D20714D4002002B070479A6821497B
:101DB00042F001029A60204A1268B2FBF1F202EB93
:101DC00042020192019A002AEAD0019A013AF8E708
:101DD000026C22F4E06222F0010242F4807202649A
:101DE0005A68510541BF026C22F4405242F48052BD
:101DF0000264026C12F480521CBF426C22F0060294
:101E00004264002280F83C206FF022021A600B4AE4
:101E10005268D20608D1986810F04050C3D19A6831
:101E200042F080429A60BFE7054A9342BBD1F2E795
:101E30000220B9E740420F00DC02002000230140ED
:101E40000020014003689A6870B5560504460D46A7
:101E50000BD59B68D80508D5236C43F02003236479
:101E6000002384F83C30012070BDFEF775FE064665
:101E700023681A6892070CD56FF012021A60226C60
:101E800042F4007222649A6812F0405F13D000207E
:101E900070BD691CEDD045B9236C43F00403236485
:101EA000002384F83C30032070BDFEF755FE801BF4
:101EB0008542DDD2F0E7A269002AE8D1DA6A12F49D
:101EC000700F02D09B685B05E1D4236C23F4807310
:101ED0002364206C10F48050D9D1236C43F00103AB
:101EE000236470BD0368D86C70470000F7B5002309
:101EF000019390F83C30012B6AD00D6804688A6821
:101F00000123092D80F83C30AEB22AD906EB4603F6
:101F1000E7681E3B4FF0070E0EFA03FE27EA0E0796
:101F2000E760E76802FA03F33B43E3604A68062A86
:101F30004FEA820325D81344676B591F1F238B4038
:101F400027EA03036363626B06FA01F111436163DD
:101F50002D4B9C4234D0002380F83C30184603B00F
:101F6000F0BD276905EB45034FF0070E0EFA03FE9F
:101F700027EA0E072761276902FA03F33B4323612F
:101F8000D4E70C2A0ED81344216BA3F123021F239C
:101F9000934021EA03032363236B06FA02F21A43F8
:101FA0002263D5E71344E16A413B1F229A4021EAAC
:101FB0000202E262E26A06FA03F11143E162C7E754
:101FC000122D07D1114A536843F480035360C2E7CE
:101FD0000220C4E70E4B9D4201D0112DBBD10B490D
:101FE0004A689D4242F400024A60B4D1094B0A4A51
:101FF0001B68B3FBF2F20A2353430193019B002BAE
:10200000A9D0019B013BF8E70020014000230140DB
:1020100012000010DC02002040420F00074AD36883
:1020200023F4E0631B041B0C43F0BF63000243F482
:10203000003300F4E0600343D360704700ED00E03C
:1020400037B500230193184B184C1A6C42F080529C
:102050001A641B6C03F080530193019B144B012203
:102060001A60FEF779FD05466368DA030BD5114B5C
:102070000E4C01221A60FEF76FFD054663689B0354
:102080000AD5002006E0FEF767FD401BB0F57A7F19
:10209000EAD9032003B030BDFEF75EFD401BB0F56A
:1020A0007A7FEBD9F5E700BF0038024000700040AE
:1020B00040000E4244000E422DE9F0410D46044618
:1020C00010B90120BDE8F081444B1A6802F00F02FC
:1020D0008A4228D321688F072DD4C80740D43F4BAC
:1020E0001A6802F00F02954266D3226851076CD439
:1020F000130707D53A4A2169936823F4604343EAFA
:10210000C103936000F0B8FA354B364A9B68C3F3BD
:102110000313D35CD840344B18600F20FEF716FD34
:102120000020BDE8F081CAB21A701B6803F00F03EB
:102130009942C6D1CEE72A4B11F0040F1EBF9A6810
:1021400042F4E0529A600E0742BF9A6842F460423D
:102150009A609A68A06822F0F00202439A60BCE795
:1021600062681F4B012A1DD11B6813F4003FA8D0E1
:102170001B4EB36823F003031343B360FEF7ECFC7C
:1021800041F288380746B368626803F00C03B3EB8A
:10219000820FA4D0FEF7E0FCC01B4045F3D903201A
:1021A000BDE8F081911E01291B6802D813F0007F61
:1021B000DDE713F0020FDAE7EAB21A701B6803F0EA
:1021C0000F039D427FF47DAF8FE70549E0688B6880
:1021D00023F4E05303438B608AE700BF003C0240D6
:1021E00000380240A9C30008DC020020044B054A65
:1021F0009B68C3F38223D35C034A1068D8407047BE
:1022000000380240B9C30008DC020020044B054A34
:102210009B68C3F34233D35C034A1068D8407047CD
:1022200000380240B9C30008DC0200200F2303601D
:102230000B4B9A6802F0030242609A6802F0F002C7
:1022400082609A6802F4E052C2609B68DB0803F483
:10225000E0530361034B1B6803F00F030B607047EF
:1022600000380240003C024003682DE9F74313F0B8
:10227000010604460BD0AA49866BD1F88C2022F0C7
:10228000C0623243B6FA86F6C1F88C2076099D0703
:102290000BD5A348E16BD0F88C2022F0C0520A4342
:1022A0000029C0F88C2008BF012613F0040512D0C5
:1022B0009B49256BD1F88C20B5F5801F22F4401284
:1022C00042EA050218BFB5FA85F5C1F88C2012BFA5
:1022D0006D090025012618070FD59148616BD0F8CC
:1022E0008C2022F440020A43B1F5800FC0F88C2004
:1022F00000F00981002908BF0125990633D5002384
:102300000193874B874F1A6C42F080521A641B6C02
:1023100003F080530193019B3B6843F480733B605F
:10232000FEF71AFC80463B68DA0540F1EE807C4FF0
:102330003B6F13F4407340F0FB80236C03F4407256
:10234000B2F5407F764A40F01681916823F07040E4
:1023500021F4F81120F4407001439160116FC3F330
:102360000B030B4313672368D90642BF6E4B94F8E7
:1023700058201A6023681A0608D56949E06CD1F81C
:10238000942022F440020243C1F894205F0608D54D
:102390006349A06CD1F8942022F080620243C1F816
:1023A0009420D8050CD55E48616DD0F8942022F0B9
:1023B00000620A43B1F1006FC0F8942008BF012504
:1023C000990508D55649606CD1F8942022F08052C6
:1023D0000243C1F894205A0500F1D180012E40F04B
:1023E000DC80524E4E4F00233360FEF7B5FB804633
:1023F0003B681B0100F125812268D00701D5A36B42
:102400001BB1910715D5E36B9BB94549D1F88430D1
:10241000D1F8840003F4403300F070600343606837
:102420000343A06843EA8013606943EA0073C1F87C
:102430008430530703D5236BB3F5801F05D01707EE
:1024400020D5636BB3F5800F1CD13549D1F88430AA
:10245000D1F8840003F4403300F0E04003436068A7
:102460000343A06843EA8013206943EA0063C1F88C
:102470008430D1F88C00A36A20F01F00013B034395
:10248000C1F88C3050051BD5236DB3F1005F17D117
:1024900023486768D0F88410D0F8843003F0E04314
:1024A0003B43A768C1F30141013143EA871343EA83
:1024B0004163E1684908013943EA0143C0F88430C7
:1024C000110511D52369A2681B0643EA82136268CD
:1024D0001343626943EA0273E2685208013A43EA2D
:1024E00002430F4AC2F8843001233360FEF734FB05
:1024F0000B4E074633681A0153D4FEF72DFBC01B61
:102500000228F7D908E00126F7E6FEF725FBA0EB45
:10251000080002287FF607AF032003B0BDE8F08370
:102520000038024000700040E01147426800474216
:10253000226C02F4407293423FF4FFAE3B6F4B4A71
:102540000121116023F44073002111603B673B6F50
:10255000DB077FF5F2AEFEF7FFFA41F288398046DD
:102560003B6F98073FF5E9AEFEF7F6FAA0EB0800DF
:102570004845F5D9D0E7916821F4F811EDE63C48DB
:10258000216DD0F8942022F000520A43B1F1005F8F
:10259000C0F894207FF422AF23E7B3F5006F3FF437
:1025A00020AF012D4BD1334D314E00232B60FEF770
:1025B000D3FA074633689B004BD421684E0701D5F8
:1025C000236B1BB108071AD5636BC3B9284AA069EE
:1025D000D2F8883003F440330343E06943EA8013C0
:1025E000606A43EA0063C2F88830D2F88C30E06A4F
:1025F00023F4F853013843EA0023C2F88C30CA05AB
:1026000014D5636DB3F1006F10D11949A269D1F8E7
:10261000883003F070631343E26943EA8213226A4D
:102620005208013A43EA0243C1F8883001232B6083
:10263000FEF792FA0E4C054623689B000FD500204A
:102640006BE7FEF789FAA0EB080002287FF6D0AE10
:1026500062E7FEF781FAC01B0228ABD95CE7FEF700
:102660007BFA401B0228E7D956E700BF400E4742DD
:102670000038024070004742204908B58B6803F0DB
:102680000C03082B07D00C2B20D01D4A1D48042B0F
:1026900018BF104608BD4A684B68496813F48003A8
:1026A00014BF18481648C1F3881118BF002302F060
:1026B0003F02A1FB000108F09FFA104B5B68C3F3D7
:1026C000014301335B00B0FBF3F008BD4A684B687F
:1026D000496813F4800314BF0A480948C1F38811FC
:1026E00018BF002302F03F02A1FB000108F084FAAA
:1026F000024B5B68C3F30273E5E700BF003802409A
:102700000024F40000127A0003682DE9F341DF078A
:10271000044610D423689E0767D423681A0700F183
:10272000B28023685B0700F1D080A269002A40F0E4
:10273000398100201EE0974B9A6802F00C02042AAF
:1027400010D09A6802F00C02082A02D15B685D0280
:1027500008D4904B9A6802F00C020C2A0DD15A68EA
:1027600050020AD58B4B1B689903D3D56368002BA5
:10277000D0D1012002B0BDE8F0816268B2F5803F9F
:1027800011D11A6842F480321A60FEF7E5F9814DE2
:1027900006462B689A03BDD4FEF7DEF9801B642839
:1027A000F7D90320E6E77B4DB2F5A02F2B6807D1C0
:1027B00043F480232B602B6843F480332B60E4E7E1
:1027C00023F480332B602B6823F480232B60002AB2
:1027D000DBD1FEF7C1F906462B689B039AD5FEF7BD
:1027E000BBF9801B6428F7D9DBE76A4B9A6812F0C3
:1027F0000C0F10D09A6802F00C02082A02D15B6814
:102800005F0208D5634A936803F00C030C2B11D1C7
:1028100053685E020ED45F4B1A68950702D5E268D2
:10282000012AA6D11A68216922F0F80242EAC102FF
:102830001A6072E7E268584BB2B101221A60FEF7E3
:102840008BF9544D06462B68980707D52B682269EB
:1028500023F0F80343EAC2032B605EE7FEF77CF93E
:10286000801B0228EFD99CE71A60FEF775F9494DE5
:1028700006462B6899077FF550AFFEF76DF9801B70
:102880000228F6D98DE76269444B7AB101221A60B9
:10289000FEF762F93F4D06466B6F9F073FF541AF6C
:1028A000FEF75AF9801B0228F6D97AE71A60FEF77C
:1028B00053F9384D06466B6F98077FF532AFFEF738
:1028C0004BF9801B0228F6D96BE7324B1A6C12F0D9
:1028D000805228D101921A6C42F080521A641B6C0B
:1028E00003F080530193019B01262D4D2B68D905E0
:1028F0001BD5A368274D012B27D12B6F43F0010374
:102900002B67FEF729F9234D074641F288382B6FD4
:102910009B0739D5002E3FF408AF1E4A136C23F0F5
:102920008053136401E70026DFE72B6843F48073CC
:102930002B60FEF711F907462B68DA05D9D4FEF7AC
:102940000BF9C01B0228F7D92BE7052B04D12B6FFD
:1029500043F004032B67D0E72A6F22F001022A67B5
:102960002A6F22F004022A67002BCAD1FEF7F4F87E
:1029700041F2883807462B6F9807CBD5FEF7ECF865
:10298000C01B4045F7D90CE7FEF7E6F8C01B4045F1
:10299000BDD906E70038024000004742800E47429A
:1029A00000700040234DAB6803F00C03082B3FF48C
:1029B000E0AE214E0023022A33602DD1FEF7CCF881
:1029C00007462B68990121D4226AE3691343626A9E
:1029D00043EA8213E26A43EA0263226B43EA027328
:1029E000A26A144C5208013A43EA02436B60012385
:1029F0003360FEF7B1F8054623689A013FF599AEBA
:102A0000FEF7AAF8401B0228F6D9CAE6FEF7A4F89A
:102A1000C01B0228D5D9C4E6FEF79EF804462B68F1
:102A20009B017FF586AEFEF797F8001B0228F6D9CA
:102A3000B7E600BF00380240600047427047000020
:102A40002E4A0368904212D0B0F1804F0FD0A2F509
:102A50007C4290420BD002F58062904207D002F592
:102A60008062904203D002F5784290421DD14A68BC
:102A700023F070031343214A904204D1CA6823F41F
:102A80004073134328E0B0F1804FF7D01C4A9042C6
:102A9000F4D002F580629042F0D002F5806290425C
:102AA000ECD002F578429042E8D0164A9042E5D048
:102AB00002F580629042E1D002F580629042DDD062
:102AC000A2F598329042D9D002F580629042D5D0DA
:102AD00002F580629042D1D003608B68C3620B68BC
:102AE0008362064B984206D003F58063984202D079
:102AF0000123436170470B690363F9E7000001405C
:102B0000000400400040014010B50446A0B190F818
:102B1000393003F0FF021BB980F83820FFF78EFF31
:102B2000022384F839302068211DFFF789FF012333
:102B300084F83930002010BD012010BD036A10B5A3
:102B400001248C4023EA04030362036A8A401A4387
:102B5000026210BD10B5044600220068FFF7EEFFC8
:102B60002368124A934203D002F5806293420DD14A
:102B7000196A41F21112114208D1196A40F2444215
:102B8000114202BF5A6C22F400425A64196A41F29F
:102B90001112114208D1196A40F24442114203D184
:102BA0001A6822F001021A60002010BD00000140E6
:102BB00010B5044601220068FFF7C0FF2368084AE9
:102BC000934203D002F58062934203D15A6C42F4DF
:102BD00000425A641A6842F001021A60002010BDD7
:102BE00000000140FFF7E4BF2DE9F0470668C26826
:102BF0003369C16923F44053134333610446836846
:102C00000069F2680343606922F41642034322F02C
:102C10000C020B431343F3607369A26923F44073FE
:102C20001343B1F5004F73617A4B7CD19E4203D0C0
:102C300003F580639E4244D1FFF7E8FA192505FBAE
:102C400000F360684FF064094000B3FBF0F3B3FB9E
:102C5000F9F34FEA0318FFF7D9FA636868435B009A
:102C6000B0FBF3F7FFF7D2FA636868435B00B0FB91
:102C7000F3F3B3FBF9F309FB1373DB003233B3FB5C
:102C8000F9F35B0003F4F877FFF7C0FA6268684372
:102C90005200B0FBF2FAFFF7B9FA636868435B00D1
:102CA000B0FBF3F3B3FBF9F309FB13A3DB003233FF
:102CB000B3FBF9F303F0070343443B44B360BDE8BF
:102CC000F087FFF793FA192505FB00F360684FF0D2
:102CD00064094000B3FBF0F3B3FBF9F34FEA0318C8
:102CE000FFF784FA636868435B00B0FBF3F7FFF714
:102CF0007DFA636868435B00B0FBF3F3B3FBF9F361
:102D000009FB1373DB003233B3FBF9F35B0003F40D
:102D1000F877FFF76BFA626868435200B0FBF2FA8B
:102D2000FFF764FAB9E79E4202D03B4B9E4240D186
:102D3000FFF76CFA676819254FF0640905FB00F38B
:102D4000BF00B3FBF7F3B3FBF9F31F01FFF75EFA24
:102D5000636868439B00B0FBF3F8FFF757FA6368BA
:102D600068439B00B0FBF3F3B3FBF9F309FB138358
:102D70001B013233B3FBF9F303F0F008FFF746FA17
:102D8000626868439200B0FBF2FAFFF73FFA6368AB
:102D900068439B00B0FBF3F3B3FBF9F309FB13A308
:102DA0001B013233B3FBF9F303F00F0343EA0803CB
:102DB00083E7FFF71BFA676819254FF0640905FBE5
:102DC00000F3BF00B3FBF7F3B3FBF9F31F01FFF709
:102DD0000DFA636868439B00B0FBF3F8FFF706FA4F
:102DE000636868439B00B0FBF3F3B3FBF9F309FBA3
:102DF00013831B013233B3FBF9F303F0F008FFF741
:102E0000F5F9626868439200B0FBF2FAFFF7EEF959
:102E1000BDE700BF0010014000140140704710B52D
:102E2000044640B390F8393003F0FF021BB980F834
:102E30003820FFF7F3FF2268242384F83930D36861
:102E400023F40053D3602046FFF7CEFE23681A69AF
:102E500022F490421A615A6922F02A025A61DA6811
:102E600042F40052DA6000202023E06384F8393015
:102E700084F83A3010BD012010BD00000D4AD2F890
:102E8000883043F47003C2F888300B4B1A68002175
:102E900042F001021A6099601A6822F0847222F4EA
:102EA00080321A60054A5A601A6822F480221A6039
:102EB000D960704700ED00E0003802401030002477
:102EC000F0B5ADB02C4B002101911A6C42F080524C
:102ED0001A641B6C03F080530193019B274B0291F2
:102EE0001A6842F440421A601B6803F4404302939C
:102EF000029B01230893002839D14FF480330993B2
:102F00004FF480030F934FF4B473022508261193F6
:102F100008A807230E951096129513931495FFF7A2
:102F2000F3FB38BBFFF78CF8074618BB4FF4C073B0
:102F30001C934FF48073159315A84FF000632A93E8
:102F40001B961D96FFF790F90F2303934FF4A053A0
:102F5000069305214FF4805303A804950597079322
:102F6000FFF7AAF8B0FA80F040092DB0F0BD4FF499
:102F7000A023C4E70020F8E70038024000700040BA
:102F800030B5ADB00023294A0193116C41F0805156
:102F90001164126C02F080520192019A244A029349
:102FA000116841F4404111601268099302F44042F3
:102FB0000292029A0F9303224FF4B47308920122F3
:102FC00002240B9211931022062308A80C920E944F
:102FD000109212941393FFF797FB10B100202DB0BD
:102FE00030BDFFF72DF805460028F7D108231B93C5
:102FF0001D934FF48073C022159315A84FF0006302
:103000001C922A93FFF730F90F2303934FF4A05338
:10301000069305214FF4805303A804940595079364
:10302000FFF74AF8B0FA80F04009D8E700380240CC
:103030000070004008B50120FFF742FF28B9FFF7F4
:103040009FFF10B9014801F021F808BD95C30008A1
:10305000174A1849936803F00C03042B10B50DD0E0
:10306000082B0DD0144B0B60114B144A9B68C3F313
:103070000313D25C0B68D3400B6010BD104BF2E71A
:103080005468506852686302C2F3881200F03F002F
:103090004CBF0B4B084BB3FBF0F35343044A52684D
:1030A000C2F3014201325200B3FBF2F3DBE700BF8F
:1030B00000380240DC0200200024F400A9C300080C
:1030C00000127A00074B084A13601A69910707D566
:1030D000DA68920704D56FF002021A6100F084BD2D
:1030E000704700BF000C0040D4110020004870471A
:1030F000C4C3000830B589B001A903A8FFF796F84A
:10310000FFF774F8002302931E4B01901A6C1E4CBB
:1031100042F008021A641A6C02F008020292029A43
:103120001A6A42F008021A621A6A22F008021A6247
:10313000069AA3F50B3323604FF0FF33E360134B84
:10314000F2B9B0FBF3F00138002560600E4825614C
:10315000A5606561FFF7D8FC0D4B0E4A9B680A48D5
:10316000C3F808210C4B4FF480225A602946FFF720
:1031700039FD2268D36823F00203D36009B030BD63
:103180004000DEE700380240D411002040420F002A
:1031900000ED00E0C530000800E100E004480268EE
:1031A000D36823F00203D3600021FFF71BBD00BFEB
:1031B000D4110020014B586A704700BF000C00403A
:1031C000054B1B686FF0020258631A61DA6842F01F
:1031D0000202DA60704700BFD4110020064B1B6862
:1031E0006FF002021A615A6942F002025A61DA680B
:1031F00042F00202DA607047D4110020034B1A68D3
:10320000D36823F00203D360704700BFD4110020BD
:10321000024B1B686FF002021A617047D411002044
:1032200008B500210348FFF795FCBDE80840FFF70B
:10323000E5BF00BFD41100207047A0F1B000FFF738
:10324000FBBFA0F1B000FFF7F7BF00F057B8A0F147
:10325000B000FFF7FABF00F054B8A0F1B000FFF7DC
:10326000FABF000010B5044600F06CF8002104F12C
:10327000B00000F07BFD064B03F10802226003F171
:1032800028028833C4F8B020C4F8B430204610BDFA
:10329000CCC300087047704710B4446800F10801BF
:1032A0000EC95CB103F0010002B938B15B1008B17E
:1032B000E0588258E0185DF8044B10475DF8044B65
:1032C0007047000000EB01138C33DA6810B57AB157
:1032D00000EB0110D0F898202AB940F23A220549B3
:1032E000054800F09FFD12681846BDE810401047E1
:1032F00010BD00BF5CC40008AFC400084030FEF73A
:1033000035BC10B540300C46FEF742FC204610BDDF
:10331000C36810B504460BB19B689847204610BDA2
:10332000884238B504460D460AD0FDF7DDF83CB1B9
:10333000EB681BB15B68294620469847EB68E36061
:10334000204638BD2DE9F04F04469B462D4B0360C7
:1033500000252D4BA06085B0436089469246C5602C
:103360000561456185610577457729461022203042
:1033700002F024F804F140062946102204F130003E
:1033800002F01CF804F18C0829464C22304602F069
:1033900015F804F19C0729461022404602F00EF869
:1033A00029461022384602F009F810222946C4F8AE
:1033B000ACB0684602F002F869464046FFF7B0FF3D
:1033C0006846FDF791F810222946684601F0F6FF9D
:1033D00069463846FFF7A4FF6846FDF785F8524670
:1033E00049463046FEF7F2F9D4F8AC103046FEF705
:1033F000B5F9304622460549FEF73CFB204605B0AC
:10340000BDE8F08FBCC4000899320008C53200083E
:103410002DE9FF410646884656F8403B17461B6893
:1034200005463C01984700F019FDD8F80C308C3463
:103430002C44ABB1E3680BB900F060FE4146204676
:10344000FFF76EFF012239463046FEF71FFB00F002
:103450001BFD2B6828465B68984704B0BDE8F081E7
:10346000E3680BB100F06CFE10220021684601F009
:10347000A5FF69462046FFF753FF6846FDF734F87D
:103480000022E0E77FB51B4B0360044610220021B9
:10349000684601F093FF002269462046FFF7B8FF17
:1034A0006846FDF721F810220021684601F086FFEA
:1034B000012269462046FFF7ABFF6846FDF714F886
:1034C00014F18C0608D004F1AC05B54204D0103DCF
:1034D0002846FDF709F8F8E704F13000FFF718FF78
:1034E00004F12000FFF714FFA06900F087FB2046DD
:1034F00004B070BDBCC4000810B50446FFF7C2FF9D
:103500002046FDF7BAFE204610BD70B5D0E908236D
:10351000D0E90245064612196B4100F079F8736B49
:103520002BB106F128001B68BDE87040184770BD3C
:10353000D0B5044616461F4600F090FC204600F029
:1035400071F8C4E90867A06900F035FB321847EB51
:103550000103204600F05CF8BDE8D04000F094BCC8
:10356000F8B504461F460D46164600F077FC636B1F
:1035700013B994F838306BB9294604F12800FFF7E5
:10358000CFFE32463B462046FFF7D2FFBDE8F8406B
:1035900000F07ABC00F0B2FDEEE71FB5044600F083
:1035A0005DFC204600F03EF8636B13B194F83830B0
:1035B00083B910220021684601F000FF694604F13A
:1035C0002800FFF7ADFE6846FCF78EFF00F05CFCBC
:1035D00004B010BD00F0B4FDEBE703689B6818472A
:1035E000094B10B5002203600023C0E90223002329
:1035F00003614361044600F0F3FA0449A06100F05E
:1036000057FA204610BD00BFE8C40008DB350008AB
:1036100007B5009000F10801806900F088FA03B056
:103620005DF804FB00F10801806900F0A9BA000010
:1036300010B5034B03600446FFF7F4FF204610BDAE
:10364000E8C4000838B504460D4603685AB18268DC
:10365000136020460121FDF771FA29462046BDE896
:103660003840FDF767BAC2681B04F1E770B50E4633
:1036700004461546FDF73EFA013606D02A46204696
:103680000021BDE87040FFF7DDBF70BD0022FFF7ED
:10369000EDBF000013B5044601300FD102B010BDDC
:1036A0009C420AD120468968FDF71CFF0021204674
:1036B00002B0BDE81040FDF7A7BF0C31B1F90030F2
:1036C0005A1CEDD10023009322460249024800F023
:1036D000FDFC00BF43C5000830010180884207B5EA
:1036E00002460AD0431C08D0013105D000230093C4
:1036F0000449054800F0EAFC0146084603B05DF8BD
:1037000004FB00BF12C5000830010180B1F9003090
:103710005A1C01D118467047834201D1486870474E
:103720000C31F3E7431C07B50AD0FFF7EFFF431C4A
:1037300006D10023024600930349044800F0C6FC6A
:1037400003B05DF804FB00BF23C500083001018011
:10375000B1F900305A1C01D118467047834201D19B
:10376000886870470C31F3E7431C07B50AD0FFF7B0
:10377000EFFF431C06D1002302460093034904488F
:1037800000F0A4FC03B05DF804FB00BFF4C4000823
:10379000300101802DE9F74FD0F804A09AF83A30B3
:1037A0000446002B46D103685B68984763681B6A30
:1037B00098423FD0DAF82030DAF80840CAF8200002
:1037C000A0EB0308DAF80C30314808EA0308844219
:1037D00046464FF0000727D0DAE90A239AF83BB0B3
:1037E000A8FB0089CDE900230025BBF1000F2BD0F9
:1037F0005A464046494606F057FDDDE9002312EBE4
:10380000080243EB090390465A46994606460F467E
:1038100006F056FDB8EB000069EB0101A94208BFB4
:10382000A0420AD2CAE90A01DAE90C23B6185F41BC
:10383000CAE90C6703B0BDE8F08F013647F1000715
:10384000001B61EB0501EDE722462B464046494649
:1038500007F0D2F9224606460F46404649462B4617
:1038600007F0CAF9DDE9008918EB020849EB030902
:10387000A94508BFA04502D2CAE90A89D4E70136A2
:1038800047F10007B8EB040869EB0509F4E700BF4E
:1038900040420F00824206D98A420BD9884294BF27
:1038A000002001207047884206D98A428CBF002040
:1038B0000120704701207047002070472DE9F14F2B
:1038C000476897F83A300646002B60D197F83930B0
:1038D000002B5CD1FFF75EFF75686B68002B59D039
:1038E000D5E90C89D3E90001894508BF804505D396
:1038F00033685B6901B0BDE8F04F1847D5E906238E
:10390000B0EB080861EB09094B4508BF42452C693B
:1039100006D3AB68254A93420FD1444528BF44469D
:103920002A6A3B6A1444EA681440A34221D14FF446
:1039300084721F491F4800F075FA95F83B20DFF8A4
:1039400078A04FF0000B7AB14046494606F0B8FC2B
:1039500010EB0A0041EB0B01144A002307F04CF96D
:10396000844228BF0446DBE7A3FB080103FB0911DF
:10397000EEE7336820461B69984733685B689847D1
:1039800022460146386AFFF785FF0028B0D101B012
:10399000BDE8F08F3B69386AFA68184433681B69E0
:1039A000104001B0BDE8F04F184700BF40420F0083
:1039B00054C500089EC500083F420F002DE9F04F96
:1039C000436893F8382085B00546002A66D193F8FD
:1039D0003A30002B62D103681B6898472B68DB697B
:1039E0009847076827B92D222E492F4800F01AFA68
:1039F0001F23012202FA03F18F425FFA83FB02D0F8
:103A0000013BF7D19B46D0F804A0AAF104031C2B7C
:103A100001D93B22E8E7072617F1FF3006FA03F643
:103A2000224C4FF0000343F1FF313A46C4FB06013C
:103A300007F0E2F86C682A6800232360636052682C
:103A40000393CDE90001904720626C684FF00008B5
:103A50004FF000095246C4E90A89A76084F83BB0D8
:103A60000120002106F02CFCDDE90023C4E9062337
:103A7000039B84F8393084F83A3001380123E06040
:103A800026612846C4E90C8984F83830FFF782FEA5
:103A9000284605B0BDE8F04FFFF710BF05B0BDE800
:103AA000F08F00BF54C500083FC6000840420F0019
:103AB00038B505460C46FFF781FF00F0CFF96B687B
:103AC0001C60BDE8384000F0DFB970B5044600F076
:103AD000C5F92368DB689847636893F83A201AB100
:103AE000BDE8704000F0D0B9012283F83920636846
:103AF0005B68A3B12046FFF74DFE65686E68D5E9A7
:103B00000C01D6E90023994208BF904207D3F3681D
:103B10006B602B68002BEAD0B0689847E7E76368D2
:103B2000002283F839202046FFF7C8FED8E72DE9A8
:103B3000F04180460C4616461F46069D00F08EF961
:103B40004046FFF727FED8F80420A560C4E90067C7
:103B5000536800254BB9E36085B954604046FFF7D0
:103B6000ADFEBDE8F04100F08FB9D3E900018F420E
:103B700008BF8642EFD31D46DB68EBE7EC60F0E759
:103B800038B505460C4600F069F96A685368A342E7
:103B900009D1DB6853602846FFF790FEBDE8384046
:103BA00000F072B91346002BF8D0DA689442F9D1CC
:103BB000E268DA60F2E738B50446FFF7FFFE00F08E
:103BC0004DF92046FFF7E6FD6368D3E90C4500F0A8
:103BD0005BF92046294638BD08B5FFF7ECFF08BD64
:103BE00000487047C4C50008024B1B680BB102486F
:103BF00018477047E0020020C4C50008024B1B684C
:103C000003B11847704700BFE00E002070B50E46A4
:103C100000250446056045600E49304601F0BEFFB0
:103C200030442060294623681A782F2A07D10133AF
:103C3000236051B92A220849084800F0F3F8002A05
:103C4000F7D0013301312360EDE700F02BFB60601A
:103C5000204670BDECC50008EEC5000838C6000857
:103C600000687047406808B520B100F0C3FA431EF1
:103C70005842584108BD10B50446FFF7F3FF10B194
:103C8000606800B1043810BD406808B520B100F08C
:103C9000B1FAB0FA80F0400908BD10B50446FFF74C
:103CA000F3FF10B1606800B1043810BD4068003007
:103CB00018BF012070470020704770477047F8B563
:103CC00003681B6D0E4604468F1898473546BD4263
:103CD00007D0236815F8011B9B6C204698470130DC
:103CE000F5D1236820465B6D9847A81BF8BDF8B551
:103CF00003681B6D0E4604468F1898473546BD4233
:103D000008D023682046DB6C9847431C02D005F896
:103D1000010BF4E7236820465B6D9847A81BF8BDAC
:103D20000020704770470020704700207047000057
:103D300010B5054B03605033044640F8043F00F0D3
:103D400079FA204610BD00BF4CC60008A0F104005F
:103D5000EEE700BF10B50446FFF7EAFF2046FDF787
:103D60008CFA204610BDA0F10400F3E70F4B13B509
:103D70000022044640F8043B00F03EFA0C4B23605E
:103D800060336360002363610A492046FDF7C2FA8D
:103D90000346606128B9009002460749074800F0D1
:103DA00095F9FDF7D7F8204602B010BD20CA0008EB
:103DB000C4C60008A4C60008A7C6000819010180EF
:103DC00010B5074B03F108026833044602604360F4
:103DD000406900F01FFB2046FFF7AAFF204610BDF8
:103DE000BCC600080EB477B5036807AD044655F8A5
:103DF000046B1B6D9847012200216069019500F05A
:103E000029FD019A6069314603F0ACF92368054643
:103E10005B6D20469847284603B0BDE8704003B06C
:103E20007047000007B504460D46164600F016F828
:103E300000962B4600222146014800F047F900BFBA
:103E40004401FF80EFF31080C04300F00100704791
:103E5000EFF30580003018BF0120704710B5074C04
:103E60002368013304D1512205490648FFF7DAFFE0
:103E700000F094F923680133236010BDE40E0020A4
:103E80002CC7000879C70008054B1A6832B11A68B8
:103E9000013A1A601B680BB900F092B9704700BF75
:103EA000E40E00200122D0E84F3FC0E8412F002956
:103EB000F9D1D8B2003018BF01207047D0E85F3F79
:103EC0000B449BB2C0E8523F002AF7D11846704716
:103ED000D0E85F3F5B1A9BB2C0E8523F002AF7D19F
:103EE0001846704708B50B48FFF7DCFF28B1FFF70D
:103EF000B5FFBFF34F8F20BFFDE7FFF7A9FF08B164
:103F0000FCF742FEFFF79EFF0028F9D00120FDF7E5
:103F100091F900BF280F002070B5164C8EB034EA1E
:103F2000200428BF04460D4616460021342201A86D
:103F300001F044FA019402960395FFF78FFF0E4AB1
:103F400013680133012B136004D1342201A90B48FB
:103F500001F036F9342201A9094801F031F9094B81
:103F60001B680BB106489847FFF78EFF00200EB084
:103F700070BD00BF0101FF80E80E0020F40E00209C
:103F80002C0F0020EC0E00202DE9F0412E4C0E46A7
:103F90002168C1F34173032B0CBF4D428DB2C1F3B5
:103FA00007438046174629482A46FCF747FE6FF428
:103FB00098731D44132D0FD8DFE805F00A2D303318
:103FC000363C393F0E0E0E0E0E0E0E0E0E0E0E422B
:103FD000A1681F48FCF732FE4046FCF705FE616809
:103FE0001C48FCF72BFE4EB11B48FCF7FDFD30468C
:103FF000FCF7FAFD39461948FCF720FEA16818487D
:10400000FCF71CFE21681748FCF718FE1648BDE8AF
:10401000F041FCF713BEA1681448DBE7A16814481F
:10402000D8E7A1681348D5E7A1681348D2E7A1688B
:104030001248CFE7A1681248CCE7A1681148C9E748
:104040001148FCF7FBFDC7E72C0F0020BFC7000895
:1040500010C80008B8C80008C9C80008D1C80008BE
:10406000D5C80008E9C8000835C9000826C80008F6
:1040700036C8000845C8000858C800086CC80008C1
:1040800080C800088FC80008A5C800080FB407B58D
:104090000B487546FFF706FF044670B901462A46ED
:1040A0000848FFF739FF214607482246FFF76CFF13
:1040B00005A904980191FCF7A7FDFFF713FF00BFC6
:1040C000F00E00200001FF80AAC7000880B5064658
:1040D0000948F0460C4617461D46FFF7E3FE48B96F
:1040E000424639463046FFF717FF029A29462046D6
:1040F000FFF74AFFFFF7F6FEF00E002013B50D4C58
:10410000FFF7ACFE22884FF6FF739A4208D1FFF703
:10411000BBFE00232288009307490848FFF7D6FF1B
:1041200001212046FFF7CAFE02B0BDE81040FFF7AC
:10413000ABBE00BF600F00204FC900082301048000
:1041400037B50B4CFFF78AFE258845B9FFF79CFE73
:10415000228800952B4607490748FFF7B7FF012142
:104160002046FFF7B5FE03B0BDE83040FFF78CBE38
:10417000600F002074C900082401048070B5044653
:10418000FFF72EFD0646FFF727FD05463046FFF7F1
:1041900023FD401BA042F9D370BD0000EFF3108354
:1041A000DB4372B6044A117829B9044903F00103CC
:1041B0000B70012313707047630F0020620F002003
:1041C00008B5EFF31083DB0704D43622054906480F
:1041D000FFF728FE054B00221A70054B1B7803B130
:1041E00062B608BD92C90008E6C90008630F002046
:1041F000620F0020007B704738B504460A4B03600D
:10420000002343600D46A16002730848FCF76EF876
:1042100045B1074B1A6862601C600448FCF766F8F9
:10422000204638BD6560F8E710CA0008680F002016
:10423000640F002010B5124B036004461148FCF7D0
:1042400055F8A3682BB1104A13689C4212D16368D9
:1042500013600E4B0B481A68944204BF00221A6088
:10426000FCF744F8237B13B9201FFDF709F820461B
:1042700010BD13465A689442FBD162685A60E8E761
:1042800010CA0008680F0020640F0020780F00207B
:1042900010B50446FFF7CEFF2046FCF7EEFF2046A0
:1042A00010BD000070B5064614480D46FCF71EF818
:1042B000134B1C687CB1A068E8B101F001FCA84276
:1042C00019D12A463146A06800F04AFF98B90B4838
:1042D000FCF70CF80DE0072DF9D12A4631460948C4
:1042E00000F03EFF0028F2D10448FBF7FFFF064B29
:1042F0001C68204670BD6468DCE700BF680F0020C2
:10430000640F002000CA0008780F0020036870B511
:104310001B690122002104469847051E0DDB236816
:1043200002221B6900212046984723680646294639
:104330001B690022204698473546284670BD00007C
:10434000FCF79BBF014B1868704700BFE4020020D8
:1043500070B559B105460C4610B1836B002B3CD0AB
:10436000636ED80705D5B4F90C302BB9002630465A
:1043700070BDA38999053CD52146284600F052F826
:10438000E36A064633B1E169284698470028B8BF7A
:104390004FF0FF36A3891A0622D4216B41B104F1F4
:1043A0004003994202D0284606F0B2FD0023236361
:1043B000616C21B1284606F0ABFD0023636400F078
:1043C000D3F9636E0022DB07A2810ED5A06D00F049
:1043D000E7FD00F0CFF9304670BD00F045F9BFE7CA
:1043E0002169284606F094FDD7E7A06D00F0DCFDBA
:1043F000ECE7A06D00F0D6FDB4F90C30002BBBD17A
:10440000666E16F00106B1D1A06D00F0CDFD30460C
:1044100070BD00BF024B01461868FFF799BF00BF8F
:10442000E4020020B1F90C309AB22DE9F0410D46BA
:10443000110780463AD46A6843F40063002AAB81CE
:104440006FDDAC6A002C49D000229BB2D8F8006026
:10445000C8F8002013F4805267D02A6D5F0705D595
:1044600069682B6B521A0BB1EB6BD21A0023E96906
:104470004046A047441C3CD0B5F90C302A692A605C
:1044800023F400630022AB81DB046A6047D4296B0C
:10449000C8F8006011B305F14003994202D04046CC
:1044A00006F036FD00202863BDE8F0812E69AEB12C
:1044B0002C682E6091070CBF6B690023A41BAB60B6
:1044C0000AE0234632466F6AE9694046B847002849
:1044D000A4EB0004064404DD002CF2DC0020BDE85F
:1044E000F081AB8943F04003AB814FF0FF30BDE872
:1044F000F081D8F800401D2CF3D8194BE340DB4382
:1045000013F00103EDD1B5F90C206B6022F40063C8
:104510002969AB81DA042960B9D5002CB7D12865A7
:10452000B5E7EA6B002A8CDCD8E70123E96940464D
:10453000A047431C024602D0AB89AC6A8EE7D8F88C
:104540000030002BF8D01D2B01D0162B02D1C8F85B
:104550000060C3E7AB8943F04003AB81BDE8F08165
:104560000100402038B50D46044608B1836BBBB14D
:10457000B5F90C0088B16B6EDB0701D4810517D546
:1045800020462946FFF74EFF6B6EDA07044602D439
:10459000AB899B0507D5204638BD0446204638BD6B
:1045A00000F062F8E4E7A86D00F0FEFC204638BD9C
:1045B000A86D00F0F7FCE3E720B1054B0146186851
:1045C000FFF7D0BF034B0449186800F095BC00BF4B
:1045D000E402002068CA000865450008014900F0AF
:1045E0008BBC00BF5143000810B5002304468181F5
:1045F000C2810360436083604366036143618361FA
:10460000194608225C3000F0D9FE07480749084ADD
:10461000084B2062E4616162A262E36204F1580027
:10462000BDE8104000F0BABC4D57000871570008B3
:10463000AD570008CD57000870B54A1E682505FB28
:1046400002F50E4605F1740106F05EFC044640B129
:1046500000210C30666005F168022160A06000F066
:10466000ADFE204670BD00BF10B50446124800F0F4
:1046700099FCA26BD2B904F53B731048C4F8E83238
:104680000321C4F8E022E063C4F8E4126068042166
:10469000FFF7AAFF01220921A068FFF7A5FF022268
:1046A0001221E068FFF7A0FF0123A3630248BDE8E1
:1046B000104000F079BC00BF24120020DD45000846
:1046C00070B50646264800F06DFC264B1D68AB6BA6
:1046D000002B33D005F538756B68AC68013B05D508
:1046E00028E0013B5A1C04F1680423D0B4F90C20E3
:1046F000002AF6D100254FF6FF720123E281A38143
:1047000004F15800656600F049FC154800F04CFCC7
:104710002560A560656025616561A561294608225F
:1047200004F15C0000F04AFE256365636564A564DE
:10473000204670BD2C682CB12546CDE72846FFF7F2
:1047400093FFC7E704213046FFF776FF0446286051
:104750000028F1D1024800F027FC0C233360E7E782
:104760003812002068CA0008014800F01BBC00BFD6
:1047700038120020014800F017BC00BF381200209A
:10478000F0B5134683B00F4601AA1946064603F05A
:1047900015FE00282FD005463046FFF791FF04464E
:1047A000002828D039464FF4DB73019A304600F0D8
:1047B00053FE071E30DB636EDB0715D51C491D4811
:1047C0001D4A1E4B6162E905E781A581E461206213
:1047D000A262E36213D4636EDA0702D4A3899B0555
:1047E00014D5204603B0F0BDA3899805E6D4A06D8A
:1047F00000F0D8FBE2E70024204603B0F0BD3046CD
:1048000002230022214600F023F8E4E7A06D00F027
:10481000CBFB204603B0F0BD0025FFF7A5FFA58127
:10482000A06D00F0BDFB2C46FFF7A4FFD9E700BF49
:10483000715700084D570008AD570008CD570008C4
:10484000024B0A4601461868FFF79ABFE4020020AF
:1048500000F00CB810B4044C13460A460146206818
:104860005DF8044B00F002B8E40200202DE9F04F9F
:104870000C4691B091461F46064610B1836B002B43
:1048800067D0636E13F0010FA38902D19D0540F13B
:10489000B28003F48473B3F5847F00F0B680D4F85B
:1048A0002880B8F1000F00F0BA80012F38D0022F15
:1048B0000ED06FB1636E1622D907326002D4A3897D
:1048C0009A0529D54FF0FF35284611B0BDE8F08F85
:1048D0004FF0000A23695546002B00F02D81B4F9F2
:1048E0000C3040F61A019AB20A4208D152053AD465
:1048F000A74A904500F0258143F40063A381214637
:104900003046FFF72FFE002800F09B80636ED9072A
:10491000D8D4A3899A05D5D4A06D00F045FBD1E782
:1049200021463046FFF71EFEA38913F4805200F0A3
:10493000E180256D5F0779D4180740F1D3802268A4
:1049400023690AB1D21A1544A9444FF0010A00277D
:10495000C2E7FFF789FE94E7A3894FF4806243F42E
:104960008063A381E264002F40F0CD80CB46BAF192
:10497000000F40F0B980A389DB0440F1F680206D80
:104980006268216B851A9646002900F0F980E36B76
:10499000ED1A15442069A26B121AAD1A1344AB45E7
:1049A0006CDBEA185A4569D9ABEB050528445B1B5B
:1049B00084E8090041B104F14003994202D0304635
:1049C00006F0A6FA00232363A38923F02003A38122
:1049D0000822002104F15C0000F0F0FC656E15F087
:1049E000010503D1A3899B0540F1A280002528463B
:1049F00011B0BDE8F08FA06D00F0D4FAA38903F4E4
:104A00008473B3F5847F7FF44AAF21463046FFF7C5
:104A1000A9FDD4F82880B8F1000F7FF446AF636E8B
:104A20001D22D80732607FF54AAF4BE7D4F804E087
:104A3000236BA5EB0E05002B54D0E26B2369AD1A56
:104A400082E73B464A46E1693046C04701303FF4C1
:104A50005DAF216B41B104F14003994202D0304671
:104A600006F056FA00232363A3892269226023F407
:104A700002630021A38161600822ABE7E56CE16974
:104A80006D4205EA0B052A4600233046C047013037
:104A90003FF435AF2369216B23600023636041B18C
:104AA00004F14003994202D0304606F031FA002367
:104AB0002363A389BBEB050B23F02003A38187D0DD
:104AC0002146304600F0E8FC00287FF418AF636808
:104AD0009B453FF614AF2268A3EB0B035A4484E8CE
:104AE0000C0075E723692FE7216B002946D0626827
:104AF000E36B4EE7E1693B463046C047411C054643
:104B00000ED0A38916E701AAB4F90E10304600F0C2
:104B100041F800287FF4F3AE059B09EB030B26E771
:104B2000636EDA073FF5CEAEA3899B053FF5CAAEAB
:104B3000A06D00F039FAC7E62146304600F064FA6D
:104B4000CDE6B4F90E100029FFF6D6AE01AA304624
:104B500000F020F830B9029B03F47043B3F5004F26
:104B60003FF4FAAEB4F90C30C6E652460123E169CF
:104B70003046C047451C7FF403AFC0E6D4F804E0DC
:104B8000236820691B1AED1A0021734407E700BF50
:104B9000AD57000838B50B46074C05461146184678
:104BA00000232360FCF767FB431C00D038BD23685B
:104BB000002BFBD02B6038BD3C1200209368002BEB
:104BC00073D02DE9F04F8B8983B00C461907009004
:104BD000164626D5226922B313F0020035682CD080
:104BE0004FF00009B04FC846B246B84543464A4662
:104BF00028BF3B460098B8F1000F50D0E169666AC3
:104C0000B047002858DDDAF808301B1A8144A8EBB9
:104C10000008CAF80830002BE7D1002003B0BDE837
:104C2000F08F2146009802F0A3FB002840F033816A
:104C3000A389356813F00200D2D113F0010945D1E0
:104C40004F46019637B39A05D4F8088040F1838027
:104C50004745C346C0F0AB8013F4906F40F0AC8082
:104C60002068BA465A46494600F044FBA2682368C9
:104C7000A2EB08025B44A2602360019A9368A3EB55
:104C80000A03D144A7EB0A079360002BC5D0A38980
:104C9000002FD8D1D5F800906F680835D2E7D5F845
:104CA0000090D5F8048008359FE700207047214622
:104CB0000098FFF757FC70B3B4F90C3043F0400391
:104CC0004FF0FF30A38103B0BDE8F08F814633463B
:104CD0004E46A8469A464D464EB380B32068236997
:104CE0006269B145CB4628BFB34698425F4604D9B6
:104CF000A36813449B4500F3A68093454BDB134602
:104D0000676AE16900982A46B847071ED4DDB9EB07
:104D10000709CCD00120DAF80830DB1B3D44F61B34
:104D2000CAF80830002B3FF478AF002ED5D108F137
:104D3000080313E9600098460833002EF9D0324684
:104D40000A21284600F0BCF9002800F0A1800130BB
:104D5000A0EB0509C2E720682369984202D863697D
:104D60009F425DD2B84528BFB8464246494600F04A
:104D7000C1FAA3682268A3EB08034244A36022603F
:104D80000BB1C24679E721460098FFF7EBFB0028FC
:104D900092D1C24671E75A46294600F0ABFAA268A2
:104DA0002368A2EB0B025B44A2602360AFE720689C
:104DB000B846BA46BB4655E762692068216902EBEE
:104DC0004208A0EB010A08EBD8780AF101004FEA8B
:104DD000680838444045424684BF804642465B05E9
:104DE00044D51146009806F08FF88346002855D028
:104DF0005246216900F0E4F9A38923F4906343F05B
:104E00008003A3810BEB0A00A8EB0A03C4F810B0DF
:104E1000C4F814802060A360B846BA46BB4621E7B8
:104E20006FF00041B94228BF39464A4691FBF3F181
:104E30000098666A03FB01F3E169B047B0F1000A2C
:104E40003FF71BAF38E71A462946019300F052FAA4
:104E50002268019B00981A4422602146FFF782FBDA
:104E6000019B00287FF428AF1F4650E7009806F00A
:104E70004DF883460028C5D1009D2169284606F0DB
:104E800047F8B4F90C300C2223F080032A6015E7B0
:104E900006F1010922E74FF0FF30BFE6009A0C232C
:104EA0001360B4F90C3009E700FCFF7F2DE9F041F5
:104EB00010F538771BD0884600267D68BC68013D18
:104EC0000FD4A389012B05F1FF3506D9B4F90E30B3
:104ED0000133204601D0C04706436B1C04F168042F
:104EE000EFD13F68002FE8D13046BDE8F0813E4663
:104EF0003046BDE8F08100BF2DE9F84310F5387762
:104F00001FD0884606464FF000097D68BC68013D09
:104F100011D4A389012B05F1FF3508D9B4F90E305E
:104F200001332146304602D0C04749EA00096B1CD4
:104F300004F16804EDD13F68002FE6D14846BDE892
:104F4000F883B9464846BDE8F88300BF70B50F4EF8
:104F50000F4D761BB61018BF002405D0013455F84C
:104F6000043B9847A642F9D10A4E0B4D761B06F03A
:104F7000A1FDB61018BF002406D0013455F8043B3B
:104F80009847A642F9D170BD70BD00BF900C0020BB
:104F9000900C00209C0C0020900C0020704700BF5B
:104FA000704700BF704700BF704700BF70B50C4628
:104FB000B1F90E10002990B015461E4614DB01AA67
:104FC000FFF7E8FD00280FDB029A02F47042A2F519
:104FD0000052B2FA82F252094FF480634FF400603B
:104FE00032602B6010B070BDA289002312F08000E7
:104FF000336004D0402218462A6010B070BD4FF4D0
:1050000080632B6010B070BD8A8992070B4606D56D
:1050100001F1430201211A601A6159617047F0B52C
:1050200083B001AB6A460C460646FFF7BFFF009906
:105030000546304605F068FFB4F90C30D8B1019A46
:10504000154F0099F76343F08003A381206020612E
:1050500061611AB92B43A38103B0F0BD3046B4F9A6
:105060000E1003F0E5F9A0B1A38923F0030343F088
:1050700001031BB2EEE79A05EED423F0030304F11B
:10508000430243F002030121A38122602261616196
:10509000E2E7B4F90C30DDE7DD450008024B0146DC
:1050A000186805F031BF00BFE4020020024B014642
:1050B000186805F02DBF00BFE402002000000000CA
:1050C00001F0FF01102A2BDB10F0070F08D010F8B9
:1050D000013B013A8B422DD010F0070F42B3F6D1BD
:1050E000F0B441EA012141EA014122F007047FF0D6
:1050F00000070023F0E80256083C85EA010586EA2D
:10510000010685FA47F5A3FA87F586FA47F6A5FA68
:1051100087F68EB9EED1F0BC01F0FF0102F0070274
:1051200032B110F8013B013A83EA010313B1F8D11F
:105130000020704701387047002D06BF3546033800
:10514000073815F0010F07D1013015F4807F02BF39
:10515000013015F4C03F0130F0BC0138704700BF8A
:10516000032A70B422D940EA01039B0711D00378C7
:105170000C78A3421DD10A44013105E010F8013F2B
:1051800011F8014BA34214D19142F7D1002070BC19
:1051900070470D680668AE420C46034601F10401F3
:1051A00000F1040008D1043A032AF2D8002ADED123
:1051B000ECE7181B70BC704721461846D7E700BFC4
:1051C000844641EA000313F003036DD1403A41D312
:1051D00051F8043B40F8043B51F8043B40F8043BD1
:1051E00051F8043B40F8043B51F8043B40F8043BC1
:1051F00051F8043B40F8043B51F8043B40F8043BB1
:1052000051F8043B40F8043B51F8043B40F8043BA0
:1052100051F8043B40F8043B51F8043B40F8043B90
:1052200051F8043B40F8043B51F8043B40F8043B80
:1052300051F8043B40F8043B51F8043B40F8043B70
:1052400051F8043B40F8043B51F8043B40F8043B60
:10525000403ABDD2303211D351F8043B40F8043B00
:1052600051F8043B40F8043B51F8043B40F8043B40
:1052700051F8043B40F8043B103AEDD20C3205D310
:1052800051F8043B40F8043B043AF9D2043208D008
:10529000D2071CBF11F8013B00F8013B01D30B887A
:1052A00003806046704700BF082A13D38B078DD058
:1052B00010F003038AD0C3F10403D21ADB071CBF2A
:1052C00011F8013B00F8013B80D331F8023B20F894
:1052D000023B7BE7043AD9D3013A11F8013B00F8CD
:1052E000013BF9D20B7803704B7843708B78837055
:1052F000604670478842F0B50DD98B1898420AD2A3
:105300008418002A51D0224613F8014D02F8014DAD
:105310009942F9D1F0BD0F2A48D941EA00039B0711
:1053200046D100F1100401F11003154653F8106C3A
:1053300044F8106C53F80C6C44F80C6C53F8086C7F
:1053400044F8086C103D53F8046C44F8046C0F2DBD
:1053500003F1100304F11004E8D8A2F1100323F0C4
:105360000F0302F00F0E1033BEF1030F1944034474
:1053700021D91E1F0D467446043C55F8047B46F89F
:10538000047F032CF8D8AEF1040424F003040434A1
:105390002144234402F0030262B1013B0A4411F8A4
:1053A000014B03F8014F8A42F9D1F0BD0346F3E700
:1053B0000346F2E7F0BD7246EEE700BF70B4860721
:1053C00046D0541E002A41D0CAB2034602E014F16E
:1053D000FF343BD303F8012B9D07F8D1032C2ED9C2
:1053E000CDB245EA05250F2C45EA054519D903F14B
:1053F00010022646103E0F2E42F8105C42F80C5C5C
:1054000042F8085C42F8045C02F11002F2D8A4F100
:10541000100222F00F0204F00F041032032C134488
:105420000DD91E462246043A032A46F8045BFAD8F0
:10543000221F22F003020432134404F003042CB1AF
:10544000C9B21C4403F8011B9C42FBD170BC7047DD
:1054500014460346C2E700BF70B50D46084C11461E
:1054600006461A46284600232360FBF7BDFF431C6F
:1054700000D070BD2368002BFBD0336070BD00BF2F
:105480003C120020838903F00903092B01D000207E
:105490007047FFF791B800BFF8B50C46054610B14C
:1054A000836B002B45D0B4F90C309AB2970407D423
:1054B000626E43F4005322F400526266A3819AB2F2
:1054C00000219606616031D4500722D5216B61B16D
:1054D00004F14003994202D0284605F019FDE36B20
:1054E000636000202063002B3FD12369002B4CD048
:1054F000B4F90C70BEB2B3071ED1226922602846EF
:105500006369256AE169A8470028606009DD002019
:10551000F8BDD1063ED512072AD443F00403A38177
:10552000E3E7A38919D143F02003A3814FF0FF30B3
:10553000F8BDFFF799F8B6E71A4B1B491868012325
:10554000A38106F00906FFF7B1FC092EA781D4D18B
:1055500021462846FEF766FFCFE7002243F04003CE
:10556000A38162604FF0FF30F8BDA36B2360F8BDEC
:1055700021462846FEF7F6FF0028D7D1B4F90C30B3
:10558000A060A06123F00803C7E721462846FFF783
:105590003BFDADE743F0400309222A604FF0FF30A6
:1055A000A381F8BD68CA00088554000800290CBF13
:1055B000022200224FF4806300F000B82DE9F0438E
:1055C000614C256883B004460F4690461E4615B1CF
:1055D000AB6B002B64D0B8F1020F06D0B8F1010F0D
:1055E00000F29F80002EC0F29C80636ED80734D5F5
:1055F00021462846FEF7B6FF216B41B104F1400376
:10560000994202D0284605F083FC00232363B4F9B5
:105610000C300022A26162601A063AD423F44A6375
:1056200023F00303B8F1020FA3811DD001AB6A463A
:1056300021462846FFF7BAFCA3891843A081002E13
:1056400032D1009E3046FFF729FD074600286BD077
:10565000A38943F08003A38128E0A3899905C7D4D7
:10566000A06DFFF79FFCC3E70025616E002604F1E3
:10567000430243F002030120A660CE07A38122600B
:105680002261606101D498053ED5284603B0BDE88B
:10569000F0832169284605F03BFCB4F90C30BDE7E6
:1056A0002846FEF7E1FF96E7002FCBD0AB6B002B2F
:1056B00033D0009BB4F90C2027609E421CBF42F4FB
:1056C0000062A281B8F1010F04BF42F00102A28181
:1056D00092B212F00803276166610ED0D1071AD585
:1056E000656E7642002315F00105A661A36009D01E
:1056F0000025284603B0BDE8F083A360656E15F071
:105700000105F5D19305C0D4A06DFFF74DFC2846E7
:1057100003B0BDE8F083A660F0E72846FEF7A4FFDB
:10572000C7E74FF0FF35B0E7DDF80090B14504D092
:105730004846FFF7B3FC074620B9B4F90C304FF0E8
:10574000FF3592E74E4683E7E402002010B50C4691
:10575000B1F90E1003F0C0F9002803DB236D0344F8
:10576000236510BDA38923F48053A38110BD00BF1E
:105770002DE9F0411646B1F90C201F46D3050C4621
:10578000054607D500220223B1F90E1002F07EFE75
:10579000B4F90C20B4F90E1022F48052A2813B46D9
:1057A00032462846BDE8F04101F0CCBD10B50C46AC
:1057B000B1F90E1002F06AFEA389421C0EBF23F459
:1057C000805343F480532065A38110BDB1F90E10BE
:1057D00001F032BE000000000000000000000000E8
:1057E000A2EB0300704700BF02780B78012A28BFA4
:1057F0009A42F5D16DE9044540EA0104CDE902671A
:105800006FF0000C4FEA447212B380EA010414F006
:10581000070F6AD100F0070420F0070004F0030529
:1058200021F007014FEAC505F0E8042314F0040F46
:10583000F1E804670CFA05F462EA040266EA040679
:105840000AD063EA0403624667EA0407664603E097
:10585000F0E80423F1E8046782FA4CF582EA0604D2
:10586000A4FA8CF46CBB83FA4CF583EA0705A5FA1D
:105870008CF595B950E9022351E9026782FA4CF59B
:1058800082EA0604A4FA8CF483FA4CF583EA07054D
:10589000A5FA8CF52543DBD09CB92DBAB5FA85F471
:1058A00024F0070427FA04F1DDE9026723FA04F380
:1058B00003F0FF0001F0FF01FDE80445A0EB01004B
:1058C000704724BAB4FA84F424F0070426FA04F1E9
:1058D000DDE9026722FA04F202F0FF0001F0FF01A5
:1058E000FDE80445A0EB0100704714F0030F3CD124
:1058F00010F0030428D150F8082B51F8083B82FA25
:105900004CF582EA0305A5FA8CF55DB950F8042C34
:1059100051F8043C82FA4CF582EA0305A5FA8CF5AD
:10592000002DE8D02DBAB5FA85F424F0070423FA47
:1059300004F122FA04F202F0FF0001F0FF01FDE899
:105940000445A0EB010070474FEAC40420F00300B7
:1059500050F8082B21F0030151F8083B0CFA04F42D
:1059600062EA040263EA0403C9E710F003041AD0F0
:10597000A1EB040120F00300E40750F8042B06D04B
:105980000FD28B785FFAA2F4E41A06D12BB1CB7850
:105990005FFAB2F4E41A00D11BB920465DF8104B4F
:1059A000704701F1040150F8042BCC0721F00301EA
:1059B00051F8043B48D824D222F07F4482FA4CF5B7
:1059C00094EA1325A5FA8CF50AD165B951F8043B80
:1059D00084EA0204B4EB036F0ED150F8042BEBE71A
:1059E0004FEA132355E035F07F454DD10878FDE8A7
:1059F0000445C0F1000070474FEA126203F0FF0354
:105A000047E002EA1C4482FA4CF594EA1345A5FAF1
:105A10008CF50AD165B951F8043B84EA0204B4EB71
:105A2000034F0CD150F8042BEBE74FEA134330E05F
:105A300015EA1C4528D10B884FEA124229E04FEAAB
:105A4000124203EA1C4324E002F0FF0482FA4CF500
:105A500094EA1365A5FA8CF50AD165B951F8043BAF
:105A600084EA0204B4EB032F09D150F8042BEBE7CE
:105A70004FEA13630DE015F0FF0F05D10B684FEAF5
:105A8000122223F07F4304E04FF00000FDE80445BC
:105A9000704712BA1BBA82FA4CF482EA0304A4FAE1
:105AA0008CF5B5FA85F402FA04F203FA04F34FEA2E
:105AB0001260FDE80445A0EB136070470000000091
:105AC00090F800F06DE9024520F007016FF0000C3E
:105AD00010F0070491F820F040F049804FF00004E6
